:100000000C9459010C94430E0C941C0E0C94F50D99
:100010000C94CE0D0C9481010C9481010C94A70DCD
:100020000C9481010C9481010C9434070C94AD075D
:100030000C9481010C9481010C9481010C94810138
:100040000C9481010C9481010C9481010C94810128
:100050000C9481010C9481010C9481010C945D0D30
:100060000C9481010C942B0D0C94F00C0C948101D8
:100070000C9481010C9481010C9481010C948101F8
:100080000C949D0C0C9481010C9481010C948101C1
:100090000C9481010C9481010C9481010C948101D8
:1000A0000C9481010C9481010C9481014E414E49C4
:1000B0004E495459494E46CDCCCC3D0AD7233C1726
:1000C000B7D13877CC2B329595E6241FB14F0A0073
:1000D0000020410000C84200401C4620BCBE4CCA63
:1000E0001B0E5AAEC59D7400407A10F35A00A072E0
:1000F0004E18090010A5D4E80000E8764817000063
:10010000E40B54020000CA9A3B000000E1F5050030
:100110000080969800000040420F000000A0860179
:10012000000000102700000000E803000000006449
:1001300000000000000A00000000000100000000B4
:10014000002C76D888DC674F0823DFC1DFAE59E189
:10015000B1B796E5E3E453C63AE651997696E8E6F8
:10016000C28426EB898C9B62ED407C6FFCEFBC9CCB
:100170009F40F2BAA56FA5F490055A2AF75C936BDD
:100180006CF9676DC11BFCE0E40D47FEF520E6B598
:1001900000D0ED902E0300943577050080841E0872
:1001A0000000204E0A000000C80C333333330F9890
:1001B0006E12831141EF8D2114893BE65516CFFE57
:1001C000E6DB18D1844B381BF77C1D901DA4BBE4E3
:1001D00024203284725E228100C9F124ECA1E53D25
:1001E00027080B00020202000009040000010202BD
:1001F0000000052400100105240101010424020669
:1002000005240600010705810310004009040100D0
:10021000020A0000000705020240000007058302F1
:100220004000000403090412010002EF0201400D26
:100230000F9200000101020301484F524920434F31
:100240002E2C4C54442E00504F4B4B454E20434FC8
:100250004E54524F4C4C45520005010905A1011561
:100260000025013500450175019510050919012981
:1002700010810205012507463B01750495016514AF
:100280000939814265009501810126FF0046FF0082
:1002900009300931093209357508950481020600D3
:1002A000FF0920950181020A212695089102C000CC
:1002B000780F11241FBECFEFDAE0DEBFCDBF11E013
:1002C000A0E0B1E0E8ECF6E302C005900D92A034A6
:1002D000B107D9F722E0A0E4B1E001C01D92AD3131
:1002E000B207E1F711E0C9E5D1E004C02197FE01B2
:1002F0000E945C1BC835D107C9F70E94B10F0C944E
:10030000621B0C940000FC014281FB0124813581B9
:100310004217130611F080E0089531812081213ABF
:1003200059F02132C1F73B3069F03A30A1F7228110
:10033000FC01208B81E008953D7F81E0313061F345
:1003400080E0EACF2281FC01278781E00895DC016B
:10035000FB0188E4808389E4818384E482831D96A1
:100360009C911D979F709F5B93831D968D919C918F
:10037000929582958F7089279F7089278F708F5BE8
:10038000848385E00895DF92EF92FF920F931F938D
:10039000CF93DF938C01FB018081813859F0B0E06D
:1003A000A0E0CD01DF91CF911F910F91FF90EF90D1
:1003B000DF9008958381823291F7F8012281FB0159
:1003C000848195812817190651F7F801C385D485D2
:1003D000B0E0A0E0209709F44EC08EEFD82E4C81FB
:1003E0005D817A019A818B8120917601309177012C
:1003F000E92FF82F4115510559F435C02F5F3F4FB4
:10040000309377012093760131964150510921F1C3
:10041000849160917401709175012617370774F704
:100420009091E8009570E1F39091E80092FD18C07A
:100430008093F10020917601309177012F5F3F4F3B
:10044000C9018F739927892BD9F6D092E8002091A2
:10045000760130917701D2CFFFEFEF16FF0619F446
:10046000AFEFBFEF9ECFAE0DBF1D0990D881C02D5D
:10047000209709F0B4CF81E0F801878792CFCF931E
:10048000DF93CDB7DEB769970FB6F894DEBF0FBE26
:10049000CDBFFC01DB018C918F5F8C939E012D5FA2
:1004A0003F4F8DE0D9011D928A95E9F729E0298314
:1004B00084E08A8391E09D8383E08E832A8721E212
:1004C0002B879C879D879F8722E2288B27E02B8B99
:1004D00025E02C8B8E8B20E430E0388F2F8B998F8A
:1004E00082818B8395858685998B8A8B83818068B1
:1004F0008D8B8091760190917701FE013196AE014E
:10050000465E5F4F6EEF2091740130917501821746
:10051000930764F00196909377018093760131966A
:10052000E417F50781F789E190E01EC08091E800AB
:100530008570E1F38091E80082FD14C08081809392
:10054000F100809176019091770101969C012F73C3
:100550003327232B01F76093E80080917601909177
:100560007701D8CF8FEF9FEF69960FB6F894DEBF73
:100570000FBECDBFDF91CF910895CF92DF92EF9262
:10058000FF920F931F93CF93DF934115510509F10C
:100590006A018C017B01D0E0C0E004C02196CC163A
:1005A000DD0669F0D7016D917D01D801ED91FC91D7
:1005B0000190F081E02DC8010995892B79F7CE01D2
:1005C000DF91CF911F910F91FF90EF90DF90CF902F
:1005D0000895D0E0C0E0F3CFFC0181E0808F938DDF
:1005E000848D981709F447C0238D30E02F5F3F4F6B
:1005F0002F733327822F03C00FB607FE17C0948DC9
:100600009817D1F3A38DAE0FBF2FB11DA35ABF4FC3
:100610006C939FB7F894238F0288F389E02D808133
:10062000806280839FBF81E090E00895A089B189B6
:100630009C9195FFE4CFA48DAE0FBF2FB11DA35A9F
:10064000BF4F9C91448D50E04F5F5F4F4F735527D4
:10065000448FA689B7899C93A089B1899C91927493
:100660009C93438D948D4913CACFA289B3899C91E1
:100670009F7D9C93C4CFA089B1898C9185FFB4CF15
:100680009FB7F894A689B7896C930088F189E02D0B
:100690008081827480839FBF81E090E00895CF9332
:1006A000DF93EC01888D882391F1EA89FB89A88981
:1006B000B989908195FD03C09C9196FD28C00FB625
:1006C00007FCF7CF808185FFF4CF8C9185FFF1CFB8
:1006D000EC8DEC0FFD2FF11DE35AFF4F20818C8D27
:1006E00090E001968F7399278C8FEE89FF89208384
:1006F000E889F9898081827480839B8D8C8D981321
:10070000D4CFEA89FB8980818F7D8083CECFDF9132
:10071000CF910895FC01938D848D981720F4891B47
:10072000990B019708952FE330E0291B3109820FBF
:10073000932F911D0895FC01918D828D981761F082
:10074000A28DAE0FBF2FB11D5D968C91928D9F5FD4
:100750009F73928F90E008958FEF9FEF0895FC01B3
:10076000918D828D981731F0828DE80FF11D858D66
:1007700090E008958FEF9FEF0895FC01918D228DF9
:10078000892F90E0805C9F4F821B91098F7399277E
:1007900008958F929F92AF92BF92CF92DF92EF9285
:1007A000FF920F931F93CF93DF9320911501211197
:1007B00014C021E030E0FC013383228380E090E02C
:1007C000DF91CF911F910F91FF90EF90DF90CF902D
:1007D000BF90AF909F908F90089520917301222336
:1007E00041F32091700120FDBCC0FA01A12CAAEFB9
:1007F000B3E000E4802E2AE3B22E55C02FBFA150F3
:10080000C1F23FB7F894C0905901D0905A01E090DE
:100810005B01F0905C0126B5A89B07C02F3F29F033
:10082000DFEFCD1ADD0AED0AFD0A3FBFFE2CED2CED
:10083000DC2CCC24C20ED11CE11CF11CCC0CDD1C28
:10084000EE1CFF1CCC0CDD1CEE1CFF1C9FB6F894AC
:100850000091590110915A0120915B0130915C0186
:10086000C6B5A89B06C0CF3F21F00F5F1F4F2F4F8B
:100870003F4F9FBE322F212F102F00270C0F111D2D
:10088000211D311D000F111F221F331F000F111FCB
:10089000221F331F0C191D092E093F09083E134062
:1008A0002105310598F2309719F4AA2009F440C0C7
:1008B0002FB7F894B093E9003091E80035FF9ECF50
:1008C0003091F200C82DC31B3C2F2FBFCC2309F45D
:1008D00096CFCE171F0611F00CF03E2FCFB6F8942E
:1008E000B093E9002091E80025FF39C0E31BF1092E
:1008F000EE24EA94E30E3323A1F09B01F12C8B014B
:100900000F5F1F4F0E0D1F1DE901D9909E01D09260
:10091000F100C017D107C1F7DFEFED1AFD0A6E0D28
:100920007F1DAA2079F0B092E800CFBE309719F56C
:100930005D9A24E620937201141615060CF039CF47
:10094000CA013ECF2091E80025FD11C0B092E80019
:10095000CFBE309709F0ACCFAA24A394A9CFCFBEC5
:10096000A2CF2091E00022602093E0003ECFCFBED6
:100970003097F1F29DCFA12C9BCF6F927F929F92E7
:10098000AF92BF92CF92DF92EF92FF920F931F939D
:10099000CF93DF931F92CDB7DEB76983DC01ED9172
:1009A000FC910280F381E02DB3E0E93CFB0709F004
:1009B000E5C020911501211118C021E030E0DC01D3
:1009C00013963C932E93129790E080E00F90DF9166
:1009D000CF911F910F91FF90EF90DF90CF90BF903C
:1009E000AF909F907F906F90089520917301222384
:1009F00021F32091700120FDC8C0FE0131963F0116
:100A0000AAEFA12C21E030E0B3E000E45AE3B52ED8
:100A10004FB7F894B093E9005091E80055FD62C0DB
:100A20004FBFA15051F25FB7F894C0905901D090D8
:100A30005A01E0905B01F0905C0146B5A89B07C0AD
:100A40004F3F29F01FEFC11AD10AE10AF10A5FBF37
:100A5000FE2CED2CDC2CCC24C40ED11CE11CF11C92
:100A6000CC0CDD1CEE1CFF1CCC0CDD1CEE1CFF1C9A
:100A70009FB6F8944091590150915A0160915B01E1
:100A800070915C0116B5A89B06C01F3F21F04F5F17
:100A90005F4F6F4F7F4F9FBE762F652F542F442798
:100AA000410F511D611D711D440F551F661F771F9A
:100AB000440F551F661F771F4C195D096E097F098A
:100AC000483E53406105710598F22115310509F042
:100AD0009FCFA1109DCF5D9A84E68093720181E043
:100AE00090E074CF5091F200F02FF51B5F2F4FBFB5
:100AF000FF2309F496CFF217130611F00CF0522FD2
:100B0000CFB6F894B093E9004091E80045FF34C0B7
:100B1000251B3109EE24EA94E50E5523A1F0A3012B
:100B2000F12CB3016F5F7F4F6E0D7F1DFA01D190E5
:100B3000AF01D092F100E617F707C1F7FFEFEF1A08
:100B4000FF0A6E0C7F1CAA2049F0B092E800CFBECD
:100B50002115310509F4BFCFA12C5ACF4091E800EF
:100B600045FD19C0B092E800CFBE2115310509F04E
:100B70004FCFAA24A3944CCFCFBEA7CF41E050E0E3
:100B8000BE016F5F7F4F099521CF2091E000226069
:100B90002093E00032CFCFBE2115310509F49BCF61
:100BA00037CF83E08093E9008091F200882319F029
:100BB0008AE38093E80008952FB7F89483E0809348
:100BC000E9008091E80085FF07C09091F20080E481
:100BD000891B90E02FBF089590E080E02FBF08951B
:100BE000FC018485958597FD05C02FEF3FEF358784
:100BF0002487089580917301882321F14FB7F894D9
:100C000082E08093E9003091F200832F90E0181683
:100C1000190614F481E090E0892B31F0289A84E6DB
:100C2000809371012091F100332359F08091F200FB
:100C3000811103C08BE68093E8004FBF822F90E0C4
:100C400008954FBF8FEF9FEF0895FC018485958530
:100C500097FF089580917301882331F14FB7F8947D
:100C600082E08093E9003091F200832F90E0181623
:100C7000190614F481E090E0892B31F0289A94E66B
:100C8000909371012091F100332369F08091F2007B
:100C9000811103C08BE68093E8004FBF822F90E064
:100CA0009587848708954FBF8FEF9FEFF9CFFC01A1
:100CB0008485958597FD0BC09FB7F89482E080935B
:100CC000E9008091F2009FBF90E0019608959FB7E0
:100CD000F89482E08093E9008091F2009FBF90E059
:100CE000089508952F923F924F925F926F927F9254
:100CF0008F929F92AF92BF92CF92DF92EF92FF922C
:100D00000F931F93CF93DF93CDB7DEB7A1970FB6A5
:100D1000F894DEBF0FBECDBF4C017B016C0182E0B9
:100D2000C80ED11C1401A5E02A0E311CB12CA12C37
:100D30009AE0492E512C612C712CF60121916F0102
:100D400030E050E040E019A28E010F5D1F4FCA0154
:100D5000B901A30192010E942B1B605DD8016E9323
:100D60008D01211531054105510589F7F701A08154
:100D7000B1810115110509F46BC0F8010190002043
:100D8000E9F73197AF01401B510B1296ED91FC91A1
:100D9000B801C70109958C01D701ED91FC91019033
:100DA000F081E02D6EE2C7010995800F911FA80E1A
:100DB000B91E2C143D0409F6F401258130E050E001
:100DC00040E019A28E010F5D1F4F8AE0482E512C82
:100DD000612C712CCA01B901A30192010E942B1B45
:100DE000605DD8016E938D012115310541055105D6
:100DF00089F7109799F0FD0101900020E9F73197EC
:100E0000AF014A1B5B0BD701ED91FC910280F3818E
:100E1000E02DB801C7010995A80EB91EC501A1961C
:100E20000FB6F894DEBF0FBECDBFDF91CF911F91FB
:100E30000F91FF90EF90DF90CF90BF90AF909F9079
:100E40008F907F906F905F904F903F902F9008957C
:100E5000ED91FC916EE2C7010995A80EB91E2C1404
:100E60003D0409F06ACFA8CF1F920F920FB60F92E0
:100E700011248F939F938091E1009091E100937FE3
:100E80009093E10083FF0FC01092E90091E09093EE
:100E9000EB001092EC0092E39093ED00109273013E
:100EA00098E09093F00082FF1AC093E09093E900DD
:100EB0009091F200992319F09AE39093E8009091B1
:100EC0007201992341F090917201915090937201B7
:100ED000911101C05D989091710191111CC084FD28
:100EE00024C080FF11C08091E2008E7E80618093DB
:100EF000E2008091E1008E7E8093E100809170019C
:100F00008E7E8160809370019F918F910F900FBEB4
:100F10000F901F90189590917101915090937101CD
:100F20009111DDCF289884FFDCCF8091E2008E7E86
:100F300081608093E2008091E1008F7E8093E100E8
:100F4000809170018E7E8061809370019F918F915E
:100F50000F900FBE0F901F9018951F920F920FB613
:100F60000F9211248F929F92AF92BF92CF92DF92F5
:100F7000EF92FF920F931F932F933F934F935F93A3
:100F80006F937F938F939F93AF93BF93EF93FF9351
:100F9000CF93DF93CDB7DEB76D97DEBFCDBF109295
:100FA000E9008091E80083FF3AC08091F1008D8BC9
:100FB0008091F1008E8B8091F1008F8B8091F100F8
:100FC000888F8091F100898F8091F1008A8F8091C4
:100FD000F1008B8F8091F1008C8F289A84E68093AA
:100FE000710182EF8093E8009D8997FD3BC08EEFF1
:100FF0008093E800892F807609F0AEC08E894F89F2
:10100000588D2F89188D811136C0903809F418C178
:101010001092F1001092F1008EEF8093E8006D962F
:101020000FB6F894DEBF0FBECDBFDF91CF91FF9119
:10103000EF91BF91AF919F918F917F916F915F9150
:101040004F913F912F911F910F91FF90EF90DF9063
:10105000CF90BF90AF909F908F900F900FBE0F904A
:101060001F9018958091E80080FDC4CF8091E80022
:1010700080FFF8CFBFCF813009F4E9C0833009F495
:1010800057C1853009F48CC0863009F499C1873086
:1010900009F482C0883009F40DC2893009F0BCCF50
:1010A000937009F079C090911701992309F44BC00E
:1010B00081E08093E9008093EB009093EC0096E34D
:1010C0009093ED00209118012223E9F132E0309352
:1010D000E9008093EB002093EC009093ED002091C9
:1010E0001901222381F133E03093E9008093EB0072
:1010F0002093EC009093ED0020911A01222319F126
:1011000034E03093E9008093EB002093EC0090935F
:10111000ED0020911B012223B1F035E03093E9006E
:101120008093EB002093EC009093ED0020911C0144
:10113000222349F036E03093E9008093EB002093BE
:10114000EC009093ED008EE78093EA001092EA00A5
:101150008F898093730160CF8B8D9C8D1092E900F5
:10116000109277011092760190937501809374012B
:10117000298D2223E9F080916701811174C082E0FA
:101180008093630184E08093640110926601109261
:10119000650181E08093670181E28093EB003FCF9E
:1011A0008091E80080FFFCCF20682093E30034CFDB
:1011B0003E892D89213A09F4C7C0213269F73332BB
:1011C00009F46BC1303209F47DC0323209F024CF0A
:1011D0008F8980931501EEEFFFE7859194918B3F06
:1011E0009C4D09F48EC1E0E0F8E080E098E0409189
:1011F0000E0150910F016091100170911101403B5F
:1012000054406105710509F459C1208131812737A6
:10121000374709F001CFA8952091600028612093FD
:10122000600020916201209360008E3F9A4009F493
:101230000DC38091FE0A9091FF0A91838083ECCECA
:1012400080916F018093F1001092F100E5CE911131
:10125000E3CE4130510509F0DFCE80916F018D7FE3
:1012600080936F01D9CE009165011091660101153F
:10127000110549F491CFD80118960D911C910115D3
:10128000110509F489CFD801ED91FC910190F0810D
:10129000E02DB1E0E338FB07E9F5F8012281898D03
:1012A0009A8D2817190639F79E898D89813AD9F1C7
:1012B000813209F79B3009F480C09A30E1F68F89BA
:1012C000808BAACE8091E80082FFFCCF8091F10054
:1012D00080930E018091F10080930F018091F100C5
:1012E000809310018091F100809311018091F100B1
:1012F000809312018091F100809313018091F1009D
:1013000080931401289A84E6809371018BEF809377
:10131000E80082CEBE016B5E7F4FC801099588232D
:1013200009F4A9CF79CE9D7F913009F0A4CF74CE76
:10133000911172CE4130510509F06ECE80916F014E
:10134000826080936F0168CE313209F025CFEEE0E4
:10135000F1E030E020E04EEF10C02F5F3F4F3093C0
:101360007701209376013196B1E0E531FB0709F46E
:1013700053CE8091740190917501281739076CF74D
:101380008091E8008570E1F38091E80082FD44CE11
:1013900080818093F10020917601309177012F5F59
:1013A0003F4FC9018F739927892BC9F64093E800F5
:1013B0002091760130917701D0CF8F8987872CCE0D
:1013C000CB8CDC8C1092E9001092770110927601A0
:1013D000123009F49BC0D0927501C09274018091C3
:1013E000670181113DC182E08093630184E08093B5
:1013F0006401109266011092650181E0809367019B
:10140000113009F445C2133009F0C6CE8F89882304
:1014100009F479C2823009F485C2813009F478C2B6
:10142000833009F0B9CE8091670181110DC082E04F
:101430008093630184E080936401109266011092AE
:10144000650181E08093670100916501109166015B
:10145000FE0131965F017F010EC0D801ED91FC9134
:101460000680F781E02DB701C8010995E80EF11C4F
:10147000F801008511850115110579F7D7011C9236
:10148000F50101900020E9F73197BF016A197B0946
:1014900040E0C5010E94AF0E41C28F89988DB0E037
:1014A000A0E080930A0190930B01A0930C01B093EC
:1014B0000D01B2CD81E08093F100AECD20911501F8
:1014C00020FDA3CE8E3F9A4049F0808191818737DD
:1014D000980721F09093FF0A8093FE0A87E797E729
:1014E00091838083809160008093620188E19BE01A
:1014F0000FB6F894A895809360000FBE909360009B
:101500008BCDEEEFFAE08EEF9AE071CE109275017E
:1015100010927401198301EE11E093E2E92E92E03A
:10152000F92EF80130E020E090E080E05EEF449199
:10153000821793077CF00196909377018093760150
:10154000319622E0E332F20701F1209174013091EB
:101550007501EDCF8091E8008570E1F38091E8009E
:1015600082FD13C04093F100809176019091770144
:1015700001969C012F733327232BF1F65093E8003B
:101580008091760190917701D6CF8091670181118A
:101590003EC182E08093630184E0809364011092F5
:1015A00066011092650181E080936701CE0101968A
:1015B0005C0129811F8289E0898382E08A8381E03E
:1015C0008E8380EA88878AEF89878091760190915F
:1015D000770109969C838B832D831092E9001092EA
:1015E000770110927601D0927501C0927401F501D5
:1015F000AE01465F5F4F30E020E09EEF0BC02F5FF3
:101600003F4F30937701209376013196E417F50729
:1016100009F4B7C02C153D0594F78091E80085705A
:10162000E1F38091E80082FDACC080818093F100FD
:1016300020917601309177012F5F3F4FB9016F7391
:101640007727672B41F49093E80020917601309141
:1016500077012F5F3F4FC0907401D0907501D1CFBB
:10166000E0906501F0906601E114F10409F4C8CE40
:10167000992493948EEFB82E08C0D7011896ED9058
:10168000FC90E114F10409F4BBCED701ED91FC917B
:101690000480F581E02DB1E0E33CFB0709F06BC06D
:1016A0008D89813851F7888D823239F7F70122818F
:1016B000898D9A8D2817190601F7A385B48510978F
:1016C00009F424C190E080E014964D915C91159747
:1016D000BA011296CC9012971396DC901397209132
:1016E000760130917701F6014115510559F433C067
:1016F0002F5F3F4F30937701209376013196415011
:10170000510929F1A490C0907401D09075012C1555
:101710003D0574F72091E8002570E1F32091E80081
:1017200022FD3ACDA092F10020917601309177010F
:101730002F5F3F4F69010FE3C022DD24CD28D1F692
:10174000B092E8002091760130917701D1CF6F3FC0
:10175000760709F421CD860F971F0D90BC91A02D1F
:10176000109709F0B1CFF7019786009709F485CF5C
:101770000CF052CC11CDBE016B5E7F4FC7010995B5
:10178000F4CF82E08D8F4EEF0FC02F5F3F4F30932D
:101790007701209376010F5F1F4FE016F10629F1C4
:1017A000C0907401D0907501F80194912C153D05FD
:1017B00064F78091E8008570E1F38091E80082FD94
:1017C00014C09093F10020917601309177012F5F42
:1017D0003F4FC9018F739927892BC9F64093E800C1
:1017E0002091760130917701D0CF809167018111EE
:1017F00032C082E08093630184E0809364011092A0
:1018000066011092650181E08093670105CC8090AC
:101810006501909066018114910409F48AC0DE018B
:1018200011965D0107C0F4018084918481149104B4
:1018300009F4BFCED401ED91FC910280F381E02D3B
:10184000B501C401099597FDB4CEEDCF1092FF0A02
:101850001092FE0AE1CB009165011091660101151D
:10186000110541F4D9CBF801008511850115110549
:1018700009F4D2CBD801ED91FC910280F381E02DE7
:10188000BE01635E7F4FC801099597FDC5CBEBCFC5
:10189000E7E2F2E02491222309F4BECB80917601A5
:1018A000909177014EEF2E0F3F2F311D5491609193
:1018B0007401709175018617970754F00196909303
:1018C0007701809376013196E217F30779F7A4CB7D
:1018D0008091E8008570E1F38091E80082FD9CCB67
:1018E0005093F10080917601909177010196BC01AF
:1018F0006F737727672B19F74093E8008091760183
:1019000090917701DBCFE3E2F2E0C4CF9786B5CECA
:1019100040E86DE089E392E00E94AF0E882309F46D
:101920003BCC7ACB40E861E187E492E00E94AF0EC5
:10193000F5CFFE0131965F013CCE1F920F920FB69C
:101940000F9211248F939F93AF93BF9380915E0169
:1019500090915F01A0916001B0916101892B8A2B68
:101960008B2B81F190915D018091000089278093FC
:10197000000080915E0190915F01A0916001B091A3
:101980006101181619061A061B069CF480915E0167
:1019900090915F01A0916001B09161010197A1094F
:1019A000B10980935E0190935F01A0936001B093B1
:1019B0006101BF91AF919F918F910F900FBE0F90DA
:1019C0001F901895809171008D7F80937100809198
:1019D0005D01909100008095892380930000E9CFFC
:1019E0001F920F920FB60F9211242F938F939F93F4
:1019F000EF93FF93E0919401F0E0EB52FE4F2081D2
:101A00008091940190E001968F73992780939401BF
:101A1000E0918E01F0918F012083E0918801F09197
:101A200089018081827480839091930180919401D7
:101A3000981307C0E0918A01F0918B0180818F7D1E
:101A40008083FF91EF919F918F912F910F900FBE07
:101A50000F901F9018951F920F920FB60F9211249E
:101A60002F938F939F93EF93FF93E0918801F091D1
:101A700089018081E0918E01F0918F0182FF0BC07E
:101A80008081FF91EF919F918F912F910F900FBEC9
:101A90000F901F9018952081809191018F5F8F7317
:101AA00090919201891769F3E0919101F0E0E85873
:101AB000FE4F258F80939101E4CF1F920F920FB6B6
:101AC0000F9211242F933F938F939F93AF93BF93C4
:101AD0008091550190915601A0915701B091580104
:101AE0003091540123E0230F2D3768F126E8230FAE
:101AF0000296A11DB11D209354018093550190932E
:101B00005601A0935701B0935801809159019091CB
:101B10005A01A0915B01B0915C010196A11DB11D1C
:101B20008093590190935A01A0935B01B0935C019B
:101B3000BF91AF919F918F913F912F910F900FBEC9
:101B40000F901F9018950196A11DB11DD4CF1F9223
:101B50000F920FB60F9211242F933F934F935F93E1
:101B60006F937F938F939F93AF93BF93EF93FF9365
:101B7000E0910801F09109010995FF91EF91BF9162
:101B8000AF919F918F917F916F915F914F913F9115
:101B90002F910F900FBE0F901F9018951F920F92CC
:101BA0000FB60F9211242F933F934F935F936F9330
:101BB0007F938F939F93AF93BF93EF93FF93E091A6
:101BC0000601F09107010995FF91EF91BF91AF9147
:101BD0009F918F917F916F915F914F913F912F9145
:101BE0000F900FBE0F901F9018951F920F920FB677
:101BF0000F9211242F933F934F935F936F937F9393
:101C00008F939F93AF93BF93EF93FF93E091040162
:101C1000F09105010995FF91EF91BF91AF919F91CF
:101C20008F917F916F915F914F913F912F910F9085
:101C30000FBE0F901F9018951F920F920FB60F9224
:101C400011242F933F934F935F936F937F938F93C1
:101C50009F93AF93BF93EF93FF93E0910201F091B5
:101C600003010995FF91EF91BF91AF919F918F91E2
:101C70007F916F915F914F913F912F910F900FBE88
:101C80000F901F9018951F920F920FB60F9211246C
:101C90002F933F934F935F936F937F938F939F9374
:101CA000AF93BF93EF93FF93E0910001F091010197
:101CB0000995FF91EF91BF91AF919F918F917F9186
:101CC0006F915F914F913F912F910F900FBE0F90A9
:101CD0001F901895CF92DF92EF92FF920F931F9370
:101CE000E82FF92F05C0015011092109310961F1CF
:101CF000908196239417B9F305C001501109210969
:101D0000310911F1908196239413F7CFC12CD12C76
:101D1000E12CF12C0AC08FEFC81AD80AE80AF80A99
:101D20000C151D052E053F0579F08081862384174B
:101D300091F36C2D7D2D8E2D9F2D1F910F91FF9076
:101D4000EF90DF90CF90089560E070E080E090E049
:101D50001F910F91FF90EF90DF90CF900895E09149
:101D60007601F09177012091740130917501E217AD
:101D7000F307D4F42091E8002570E1F32091E80006
:101D800022FD1CC021E0260F220F2093F10020919C
:101D90007601309177012F5F3F4F2F733327232B2D
:101DA00019F42EEF2093E80020917601309177010D
:101DB0002F5F3F4F3093770120937601E0917601BA
:101DC000F09177012091740130917501E217F307CA
:101DD000C4F42091E8002570E1F32091E80022FD91
:101DE0001AC023E02093F100209176013091770111
:101DF0002F5F3F4F2F733327232B19F42EEF2093A0
:101E0000E80020917601309177012F5F3F4F3093AA
:101E1000770120937601582FFC017EEF8E2F851BD2
:101E2000861708F063C047FF02C0949101C09081FB
:101E3000A0917601B09177012091740130917501E4
:101E4000A217B307B4F48091E8008570E1F38091A4
:101E5000E800A0E082FD17C09093F1008091760128
:101E60009091770101968F739927892B11F47093C4
:101E7000E800809176019091770101969093770127
:101E800080937601A1E020917601309177018091D5
:101E900074019091750128173907B4F49091E80006
:101EA0009570E1F38091E80082FD1AC01092F10074
:101EB00020917601309177012F5F3F4F2F733327A9
:101EC000232B11F47093E800209176013091770173
:101ED0002F5F3F4F309377012093760181E001C05F
:101EE00080E08A233196811199CF089581E0089589
:101EF000E8E7F1E01382128288EE93E0A0E0B0E020
:101F000084839583A683B78381E391E09183808363
:101F10008DEC90E0958784878CEC90E0978786879E
:101F200088EC90E0918B808B89EC90E0938B828B96
:101F30008AEC90E0958B848B8EEC90E0978B868B6F
:101F4000118E128E138E148EE5E1F2E01182108252
:101F500089E592E09383828386E590E0958384838C
:101F60000895CF93DF93CDB7DEB769970FB6F89496
:101F7000DEBF0FBECDBF789484B5826084BD84B5CA
:101F8000816084BD85B5826085BD85B5816085BD74
:101F900080916E00816080936E001092810080912C
:101FA00081008260809381008091810081608093B4
:101FB00081008091800081608093800080919100F9
:101FC0008260809391008091910081608093910064
:101FD000809190008160809390008091C100846026
:101FE0008093C1008091C10082608093C100809184
:101FF000C10081608093C1008091C30081608093A3
:10200000C3008091C00082608093C0008091C200B4
:1020100081608093C20080917A00846080937A000E
:1020200080917A00826080937A0080917A0081604A
:1020300080937A0080917A00806880937A00109271
:10204000730110926F01109270018091D70081602E
:102050008093D70080EA8093D80089B5806189BDDC
:1020600089B5826089BD09B400FEFDCF3FB7F89401
:102070008091590190915A01A0915B01B0915C014E
:1020800026B5A89B05C02F3F19F00196A11DB11DD3
:102090003FBFBA2FA92F982F8827AC01BD01420F4F
:1020A000511D611D711D440F551F661F771F440F81
:1020B000551F661F771F3FB7F89480915901909183
:1020C0005A01A0915B01B0915C0126B5A89B05C0A7
:1020D0002F3F19F00196A11DB11D3FBFBA2FA92FA7
:1020E000982F8827820F911DA11DB11D880F991F60
:1020F000AA1FBB1F880F991FAA1FBB1F841B950B0C
:10210000A60BB70B883E9340A105B105A0F28091C4
:10211000D8008F7C80618093D8008091E000807F20
:102120008093E0008091E1008E7E8093E1008DE05D
:102130008093E200559A209A5D98289881E08D83DB
:102140008E839E01255F3F4F38872F831A8619861D
:1021500025E231E03A8329831D861C861F861E8670
:10216000888B898B91EC9B8790916701911157C364
:102170008093670124E032E084E090E053E045E0A2
:10218000BE016F5F7F4F70936601609365013B8373
:102190002C83509363018A5E9E4F21ECDC012C93CB
:1021A0004093640185E291E09A83898385E192E01E
:1021B0009D878C878E859F852091190230911A0208
:1021C000820F931F9F878E87E0918801F09189018C
:1021D00082E08083E0918401F09185011082E0919A
:1021E0008601F09187018FEC808310929001E0913D
:1021F0008C01F0918D0186E08083E0918A01F0915D
:102200008B01808180618083E0918A01F0918B0154
:10221000808188608083E0918A01F0918B018081C8
:1022200080688083E0918A01F0918B0180818F7DAD
:10223000808380E88D8B8E8B8F8B888F1B8A1A8A88
:1022400090E8F92E00E830E020E010E8B0E8A0E4E3
:102250004AE3C42E54E6352E7C895C81E52E6894D1
:10226000E6F8809191014091920190E0805C9F4F4F
:10227000841B91098F739927892B99F38091910180
:102280004091920190E0805C9F4F841B91098F7375
:102290009927892B99F39091910180919201981738
:1022A00009F4BBC2E0919201F0E0E858FE4F658D61
:1022B000809192018F5F8F7380939201662309F45E
:1022C000BCC040E080919101E091920190E0805C7F
:1022D0009F4F8E1B91098F739927892B99F39091AA
:1022E000910180919201981709F4A3C0E0919201A5
:1022F000F0E0E858FE4FE58D809192018F5F8F737B
:1023000080939201EC3309F459C0EE3309F456C0BE
:10231000E053EB3408F08DC00E2E000CFF0BED5691
:10232000FE4E0C945C1B8D13191281137B137513D5
:102330001912691363135D13191219121912561326
:1023400019124E1319121912481342133C13361363
:1023500019121912191230132A13191219122413EF
:102360001E13191219121813191212131912191215
:102370000C13061319120013FA12F412191219127F
:102380001912191219121912EE12E812E212DC12C5
:10239000191219121912D612D01219121912B812D2
:1023A000B21219121912AC121912A612191219121C
:1023B000C412BE121912CA126F13871380919101B1
:1023C000F091920190E0805C9F4F8F1B91098F7379
:1023D0009927892B99F390919101809192019817F7
:1023E00041F080919201809192018F5F8F73809371
:1023F000920180919101F091920190E0805C9F4F59
:102400008F1B91098F739927892B99F390919101D3
:1024100080919201981709F47BCF8091920180916D
:1024200092018F5F8F7380939201E053EB3408F435
:1024300073CF4F5F461708F445CF8091730188230F
:1024400009F40FCF1D8B0E8BBF8BF88E3B8B2A8B25
:102450007C8B8091700180FF05C08091E0008260DC
:102460008093E000B52FB072DB2E952F9770BE01E0
:102470006E5E7F4F8AEFB0E028E030E04FB7F8940F
:102480009093E9005091E80055FD53C14FBF815032
:1024900009F48BC15FB7F8944090590150905A01EC
:1024A00060905B0170905C0146B5A89B07C04F3FF0
:1024B00029F0FFEF4F1A5F0A6F0A7F0A5FBF762C81
:1024C000652C542C4424440E511C611C711C440C7A
:1024D000551C661C771C440C551C661C771C5FB78A
:1024E000F8948090590190905A01A0905B01B090AF
:1024F0005C0146B5A89B07C04F3F29F0EFEF8E1A4D
:102500009E0AAE0ABE0A5FBFBA2CA92C982C88245A
:10251000840E911CA11CB11C880C991CAA1CBB1C0C
:10252000880C991CAA1CBB1C84189508A608B7081F
:10253000F8EE8F16F3E09F06A104B10480F2211596
:10254000310509F09BCFB11199CF2CC12F7D4F5F81
:10255000461708F4B7CE71CF3D7F4F5F461708F49A
:10256000B1CE6BCF3E7F4F5F461708F4ABCE65CF41
:102570002F7E4F5F461708F4A5CE5FCF2F774F5FB2
:10258000461708F49FCE59CF3B7F4F5F461708F49C
:1025900099CE53CF277F4F5F461708F493CE4DCF88
:1025A000377F4F5F461708F48DCE47CF3F7E4F5F92
:1025B000461708F487CE41CF777F4F5F461708F460
:1025C00081CE3BCF3F7D4F5F461708F47BCE35CFA2
:1025D0002D7F4F5F461708F475CE2FCF2B7F4F5FAF
:1025E000461708F46FCE29CF20644F5F461708F4D2
:1025F00069CE23CF21604F5F461708F463CE1DCF0D
:1026000028604F5F461708F45DCE17CF20684F5FF4
:10261000461708F457CE11CF34604F5F461708F4C1
:1026200051CE0BCF20624F5F461708F44BCE05CF3B
:1026300032604F5F461708F445CEFFCE31604F5FE2
:10264000461708F43FCEF9CE20614F5F461708F4D5
:1026500039CEF3CE38604F5F461708F433CEEDCE57
:1026600030614F5F461708F42DCEE7CE78604F5F9C
:10267000461708F427CEE1CE30624F5F461708F4C4
:1026800021CEDBCE22604F5F461708F41BCED5CE9D
:1026900024604F5F461708F415CECFCE80E8F82EA1
:1026A000B0E84F5F461708F40DCEC7CE00E810E83B
:1026B0004F5F461708F406CEC0CE7D7F4F5F4617AA
:1026C00008F400CEBACE797F4F5F461708F4FACDF2
:1026D000B4CE7B7F4F5F461708F4F4CDAECE2E7F8D
:1026E0004F5F461708F4EECDA8CE72604F5F4617D5
:1026F00008F4E8CDA2CE76604F5F461708F4E2CD2D
:102700009CCE74604F5F461708F4DCCD96CE2F7BCD
:102710004F5F461708F4D6CD90CE30E020E000E8B9
:10272000F02EB0E800E810E84F5F461708F4CACD75
:1027300084CE5091F200EA2FE51B5E2F4FBFEE23AF
:1027400009F4A5CEE217130611F00CF0522FFFB6D4
:10275000F8949093E9004091E80045FF39C0251BAB
:1027600031094FEF450FD11035C0E7FC3EC055236E
:1027700089F0FB0150E08B010F5F1F4F040F151F05
:10278000B190B092F1000E171F07D1F74F5F5F4F66
:10279000640F751FBB2381F0C092E800FFBE2115B6
:1027A0003105F9F45D9A30927201BF891D892A8939
:1027B0003B890E89F88C50CD4091E80045FD26C03C
:1027C000C092E8002115310571F4FFBEB1E056CE8C
:1027D000FFBEB5CE5523F1F21092F1004150E0F763
:1027E000D9CFB0E04BCEFFBE49CE552399F2FB01C5
:1027F00050E08B010F5F1F4F040F151FB490B09274
:10280000F10031960E171F07C9F7C0CF211531050A
:1028100051F7C092E800FFBEC5CF6FEF52CD2091B7
:102820006401822F90E0873091050CF0BBCCE091E1
:102830006501F09166013091630151E0530F41E071
:10284000420F309709F49CCC608571856115710544
:1028500011F0FB01F9CFBE016F5F7F4F7187608779
:102860006B85EC85FD853B832C83509363018A5EE9
:102870009E4FDC016C934093640185E291E09A8362
:102880008983309709F492CC80819181009711F06F
:10289000FC01FACF85E192E0918380838BCCEF92AB
:1028A0000F931F93CF93DF93E80134E047FD34E1AA
:1028B000042E000C550B57FF03C05195419551094B
:1028C000E32E022F242FAE010E94E315CE01DF91EB
:1028D000CF911F910F91EF9008958F929F92AF9299
:1028E000BF92CF92DF92EF92FF92CF93DF93EC01F2
:1028F000688179818A819B816115710581059105C6
:1029000021F464E279ED8BE597E02DE133EF41E0CE
:1029100050E00E94C21A49015A019B01AC01A7EA8A
:10292000B1E40E94E11A6B017C01ACEEB4EFA501A9
:1029300094010E94EF1AC60ED71EE81EF91EF7FE7C
:1029400006C081E0C81AD108E10880E8F80AC88208
:10295000D982EA82FB82C701B6019F77DF91CF91CE
:10296000FF90EF90DF90CF90BF90AF909F908F90AF
:1029700008958F929F92AF92BF92CF92DF92EF9283
:10298000FF9260911D0170911E0180911F01909135
:102990002001611571058105910521F464E279ED4D
:1029A0008BE597E02DE133EF41E050E00E94C21A41
:1029B00049015A019B01AC01A7EAB1E40E94E11A66
:1029C0006B017C01ACEEB4EFA50194010E94EF1AFB
:1029D000C60ED71EE81EF91EF7FE06C081E0C81A13
:1029E000D108E10880E8F80AC0921D01D0921E01CA
:1029F000E0921F01F0922001C701B6019F77FF907E
:102A0000EF90DF90CF90BF90AF909F908F90089500
:102A100060931D0170931E0180931F01909320010C
:102A20000895662777270C9442171F93FC01992776
:102A30008827BC01E89411911032E9F3193010F0A5
:102A40001E30C8F31B3251F01D3249F4689406C0A1
:102A50000E947C15610F711D811D911D11911053F4
:102A60001A30B0F33EF490958095709561957F4F44
:102A70008F4F9F4F1F910895FB01DC0105900D9230
:102A80000020E1F70895FC0105900020E9F780950A
:102A900090958E0F9F1F08954532510520F44230C6
:102AA00010F00C945715FB011082CB010895BB2741
:102AB0004A3031F4992322F4BDE2909581959F4FDD
:102AC0000C94CA152532310520F4223010F00C94F4
:102AD0006D15FA011082CA010895BB272A3051F4FE
:102AE000992342F4BDE290958095709561957F4F52
:102AF0008F4F9F4F0C949D15592F482F372F262FFE
:102B0000660F771F881F991F660F771F881F991FF1
:102B1000620F731F841F951F660F771F881F991FF1
:102B200008952532310520F4223010F00C949C15C4
:102B3000FA011082CA010895BB27FA01A62F621775
:102B4000710581059105330B30FB66F0AA27660FEE
:102B5000771F881F991FAA1FA21710F0A21B639549
:102B60003850A9F7A05DAA3308F0A95DA19336F704
:102B7000B111B1931082CA010C948B1945325105E1
:102B800020F4423010F00C94C915FB011082CB01E7
:102B90000895BB27FB015527AA27880F991FAA1F55
:102BA000A41710F0A41B83955051B9F7A05DAA3368
:102BB00008F0A95DA193009779F7B111B193119233
:102BC000CB010C948B19A9E0B0E0E9EEF5E10C948F
:102BD000FA1A6A01F22EB02E102FFBE3AF2EA016C8
:102BE00008F41BE31F5F012F27E0AE014F5F5F4F2B
:102BF0000E949218BC018981982F9970913009F434
:102C00003FC09BE2E1FC04C09E2D9170E0FC3AC005
:102C10005E2D5071E82FE87083FF46C084E091116B
:102C200001C083E0EF2DE81B8F1508F0E0E0D6012E
:102C30008E2F20E2552351F1992329F0D6019C9340
:102C4000C60101966C0196012D5F3F4FE2FE24C044
:102C50008EE4D6018C9391E411969C931197129671
:102C60008C93D9018E2F90E281111BC0E20FF32FBC
:102C7000F11D10828EEF9FEF2996ECE00C94161B4D
:102C80009DE2C6CF90E2C4CF2D9381508111FCCF3D
:102C9000CE0ED11CE0E0D0CF8EE6D6018C9391E62B
:102CA000DBCF9D938150E0CF482F447082FF3DC021
:102CB00084E0911101C083E08F1510F4EF2DE81B23
:102CC000D6018E2F20E2552309F1992329F0D60150
:102CD0009C93C60101966C0196012D5F3F4FE2FE69
:102CE0001BC089E4D6018C938EE411968C931197C6
:102CF00086E412968C93D9018E2F90E2882309F4F2
:102D0000B5CF9D938150FACF2D9381508111FCCF87
:102D1000CE0ED11CE0E0D9CF89E6D6018C938EE6A9
:102D200011968C93119786E6E4CF9B0177FF02C042
:102D300030E020E0A1E0B0E0911102C0B0E0A0E0FE
:102D4000F9013196AE0FBF1F8B2C912CBB2009F4DB
:102D500061C05401EFEFAE1ABE0AAA0DBB1DFA16F0
:102D60001B0619F014F04F2D4A1B511188C0E3FCCB
:102D700059C07601A42FB0E2A1114FC0C40ED11CDE
:102D8000992309F45BC040E0D6011196F6019083C7
:102D90006D01552309F448C0012F060F9A81582F61
:102DA000507184FF03C0913309F4015010160CF0E8
:102DB00047C0093008F008E0EEE2FE2E5B01A01AE1
:102DC000B10885019194819491082F3F320729F42D
:102DD000D601FC92F60131966F016217730794F1E8
:102DE000021713077CF5DB01A21BB30BAA24A394E3
:102DF000B12CAC0EBD1EAA0DBB1D11968C9121509D
:102E00003109D601119628153905F4F0F6018083B1
:102E10006D01DBCFB12CA12CA0CFF701B1937F01C5
:102E2000A150AACF9111B0CFD601942F50E302C088
:102E30005D9391509111FCCFC40ED11C40E0ACCFFA
:102E400001E0BACF80E3DBCF6217730731F496332A
:102E500088F4953311F4552369F0F6018083FD0160
:102E6000842F90E2811108C0A40FB11D1C9290E044
:102E700080E002CF81E3F1CF91938150F3CF9111A4
:102E800083CF8ACFB0E0A0E0E8E4F7E10C94FA1A2F
:102E90005C017B016115710519F0DB018D939C9339
:102EA00085010F5F1F4FF501D0818D2F90E00E94AB
:102EB0006A196C01892BB9F5DD32B9F50F5F1F4F27
:102EC000D5011196DC91C1E05801F1E0AF1AB108CB
:102ED00043E050E064EB70E0C5010E947319892B58
:102EE00069F5680182E0C80ED11C45E050E06FEA48
:102EF00070E0C6010E947319892B21F4680197E0E4
:102F0000C90ED11CE114F10419F0D701CD92DC9265
:102F100060E070E080E89FEFC111FFC060E070E00A
:102F200080E89FE7FAC05801BBCFDB3229F4850166
:102F30000E5F1F4FF501D181C0E0C6CF43E050E0E6
:102F40006CEA70E0C5010E947319892BE9F0F80161
:102F500010E000E020E030E0A9015F01B0ED8B2E31
:102F60008D0E89E08815C8F19C2E689491F88C2FFD
:102F70008870C2FF16C0811102C00F5F1F4F3196CB
:102F8000D501DC91C92DE9CFE114F10429F00E5FE0
:102F90001F4FF7011183008360E070E080EC9FE732
:102FA000BCC0882311F001501109A5E0B0E00E94D7
:102FB000E11A9B01AC01220F331F441F551F280D3E
:102FC000311D411D511D283999E93907490799E1FA
:102FD0005907A8F2C6609C2ED2CFAEEF8A1206C067
:102FE000C3FD3CC09C2E689493F8C9CFDF7DD534D7
:102FF000A9F580818D3239F4C061DF01129681819B
:1030000062E070E006C0DF018B32C1F3119661E02F
:1030100070E080535D01A61AB70A8A30F8F4E0E840
:10302000CE16ECE0DE065CF4B601660F771F660F85
:10303000771FC60ED71ECC0CDD1CC80ED11C5D013F
:10304000FFEFAF1ABF0A8C9180538A30A8F1C4FFFA
:1030500003C0D194C194D1080C0D1D1DC1FF09C03E
:10306000E114F10431F081E0A81AB108D701AD9262
:10307000BC92CA01B9010E94A019C370C33009F4FF
:1030800090584B015C0120E030E0A9010E949B199F
:10309000882309F440C0C3EED0E017FF05C01195A6
:1030A00001951109CBECD0E06E01B8E1CB1AD10843
:1030B00080E2E82EF12C0FC0D501B1CFFE012591A1
:1030C0003591459154910E191F09C501B4010E9413
:1030D000011A4B015C01D501C4010E151F0574F7DF
:1030E0002497F594E794CC16DD06A9F78A2F880F6C
:1030F0008B2F881F8F3F49F020E030E0A901C501E8
:10310000B4010E949B19811106C082E290E0909365
:103110001C0280931B02C501B401CDB7DEB7ECE001
:103120000C94161B283008F027E03327DA01990F9A
:10313000311D87FD916000966105710539F432609B
:103140002E5F3D9330E32A95E1F708959F3F30F0DD
:1031500080387105610509F03C5F3C5F3D9391301B
:1031600008F08068911DDF93CF931F930F93FF9218
:10317000EF92192F987F9695E92F96959695E90FDE
:10318000FF27EF5BFE4F99273327EE24FF24A7018B
:10319000E70105900894079428F4360FE71EF81EFF
:1031A000491F511D660F771F881F991F0694A1F7AD
:1031B0000590079428F4E70EF81E491F561FC11DFD
:1031C000770F881F991F661F0694A1F70590079433
:1031D00028F4F80E491F561FC71FD11D880F991FCD
:1031E000661F771F0694A1F70590079420F4490FF6
:1031F000561FC71FD81F990F661F771F881F069479
:10320000A9F784911095177041F0D695C7955795F9
:103210004795F794E7941A95C1F7E7EEF0E06894C4
:103220001590159135916591959105907FE2739573
:10323000E118F10A430B560BC90BD009C0F7E10C9A
:10324000F11E431F561FC91FD01D7EF4703311F4A9
:103250008A95E6CFE894015030F0080F0AF4002771
:10326000021708F4202F2395022F7A3328F079E3F0
:103270007D932A95E9F710C07D932A9589F60694E7
:1032800097956795379517951794E118F10A430BB1
:10329000560BC90BD00998F023957E9173957A331C
:1032A00008F070E37C932013B8F77E9170617D93F2
:1032B00030F0839571E37D9370E32A95E1F7112453
:1032C000EF90FF900F911F91CF91DF91992787FD8C
:1032D0009095089591110C946E1A803219F08950CE
:1032E0008550C8F70895FB01DC014150504088F03B
:1032F0008D9181341CF08B350CF4805E65916134C6
:103300001CF06B350CF4605E861B611171F3990B38
:103310000895881BFCCFDC01FC01672F7191772396
:10332000E1F7329704C07C916D9370836291AE1780
:10333000BF07C8F308950E94DD1908F481E00895DD
:10334000E89409C097FB3EF490958095709561953F
:103350007F4F8F4F9F4F9923A9F0F92F96E9BB27F5
:103360009395F695879577956795B795F111F8CF71
:10337000FAF4BB0F11F460FF1BC06F5F7F4F8F4FDC
:103380009F4F16C0882311F096E911C0772321F0D2
:103390009EE8872F762F05C0662371F096E8862F6A
:1033A00070E060E02AF09A95660F771F881FDAF7C1
:1033B000880F9695879597F90895990F0008550FEE
:1033C000AA0BE0E8FEEF16161706E807F907C0F0AB
:1033D00012161306E407F50798F0621B730B840BB3
:1033E000950B39F40A2661F0232B242B252B21F48D
:1033F00008950A2609F4A140A6958FEF811D811D2D
:1034000008950E94141A0C94881A0E947A1A38F0AF
:103410000E94811A20F0952311F00C94711A0C94DB
:10342000771A11240C94BC1A0E94991A70F3959F74
:10343000C1F3950F50E0551F629FF001729FBB27AB
:10344000F00DB11D639FAA27F00DB11DAA1F649F47
:103450006627B00DA11D661F829F2227B00DA11DFA
:10346000621F739FB00DA11D621F839FA00D611D80
:10347000221F749F3327A00D611D231F849F600DA1
:10348000211D822F762F6A2F11249F5750409AF0CA
:10349000F1F088234AF0EE0FFF1FBB1F661F771F56
:1034A000881F91505040A9F79E3F510580F00C9421
:1034B000711A0C94BC1A5F3FE4F3983ED4F38695DE
:1034C00077956795B795F795E7959F5FC1F7FE2BC1
:1034D000880F911D9695879597F9089599278827C4
:1034E000089597F99F6780E870E060E008959FEF86
:1034F00080EC089500240A9416161706180609068B
:10350000089500240A941216130614060506089559
:10351000092E0394000C11F4882352F0BB0F40F4E1
:10352000BF2B11F460FF04C06F5F7F4F8F4F9F4F21
:10353000089557FD9058440F551F59F05F3F71F0A3
:103540004795880F97FB991F61F09F3F79F087950A
:103550000895121613061406551FF2CF4695F1DF93
:1035600008C0161617061806991FF1CF8695710523
:10357000610508940895E894BB2766277727CB0157
:1035800097F90895052E97FB1EF400940E94D91A0E
:1035900057FD07D00E942B1B07FC03D04EF40C9460
:1035A000D91A50954095309521953F4F4F4F5F4F19
:1035B000089590958095709561957F4F8F4F9F4F9F
:1035C00008950E944D1BA59F900DB49F900DA49F40
:1035D000800D911D11240895B7FF0C94E11A0E94EB
:1035E000E11A821B930B08952F923F924F925F92A4
:1035F0006F927F928F929F92AF92BF92CF92DF9203
:10360000EF92FF920F931F93CF93DF93CDB7DEB767
:10361000CA1BDB0B0FB6F894DEBF0FBECDBF0994FB
:103620002A88398848885F846E847D848C849B8452
:10363000AA84B984C884DF80EE80FD800C811B8160
:10364000AA81B981CE0FD11D0FB6F894DEBF0FBE8F
:10365000CDBFED010895A1E21A2EAA1BBB1BFD01EF
:103660000DC0AA1FBB1FEE1FFF1FA217B307E40761
:10367000F50720F0A21BB30BE40BF50B661F771FB9
:10368000881F991F1A9469F7609570958095909599
:103690009B01AC01BD01CF010895A29FB001B39F72
:1036A000C001A39F700D811D1124911DB29F700D4B
:1036B000811D1124911D0895EE0FFF1F0590F491B7
:0836C000E02D0994F894FFCFFE
:1036C80071067106710671067106FFFFFFFF00E1C2
:1036D80000000000000000C180810000000100001F
:1036E800000000000083013F02C301A701000000A1
:1036F80000EC02BD028A034F03BD039B03AF030026
:00000001FF
